{
  "contractName": "Payment",
  "abi": [
    {
      "inputs": [],
      "payable": false,
      "stateMutability": "nonpayable",
      "type": "constructor"
    },
    {
      "anonymous": false,
      "inputs": [
        {
          "indexed": false,
          "name": "_transferTo",
          "type": "address"
        },
        {
          "indexed": false,
          "name": "_transferFrom",
          "type": "address"
        },
        {
          "indexed": false,
          "name": "amount",
          "type": "uint256"
        }
      ],
      "name": "TransferFund",
      "type": "event"
    },
    {
      "constant": false,
      "inputs": [
        {
          "name": "_transferTo",
          "type": "address"
        }
      ],
      "name": "transferFund",
      "outputs": [
        {
          "name": "",
          "type": "bool"
        }
      ],
      "payable": true,
      "stateMutability": "payable",
      "type": "function"
    },
    {
      "constant": false,
      "inputs": [],
      "name": "getBalanceOfCurrentAccount",
      "outputs": [
        {
          "name": "",
          "type": "uint256"
        }
      ],
      "payable": true,
      "stateMutability": "payable",
      "type": "function"
    }
  ],
  "bytecode": "0x608060405234801561001057600080fd5b50336000806101000a81548173ffffffffffffffffffffffffffffffffffffffff021916908373ffffffffffffffffffffffffffffffffffffffff1602179055506102ab806100606000396000f3fe6080604052600436106100295760003560e01c8063cd4558fd1461002e578063eba1877b1461008a575b600080fd5b6100706004803603602081101561004457600080fd5b81019080803573ffffffffffffffffffffffffffffffffffffffff1690602001909291905050506100a8565b604051808215151515815260200191505060405180910390f35b61009261023f565b6040518082815260200191505060405180910390f35b600081600160006101000a81548173ffffffffffffffffffffffffffffffffffffffff021916908373ffffffffffffffffffffffffffffffffffffffff160217905550600160009054906101000a900473ffffffffffffffffffffffffffffffffffffffff1673ffffffffffffffffffffffffffffffffffffffff166108fc349081150290604051600060405180830381858888f19350505050158015610153573d6000803e3d6000fd5b507f41f7a8a1a70f43ecf6769f65a9933ba3370058d8e3422511a890553ba75ff3e8600160009054906101000a900473ffffffffffffffffffffffffffffffffffffffff166000809054906101000a900473ffffffffffffffffffffffffffffffffffffffff1634604051808473ffffffffffffffffffffffffffffffffffffffff1673ffffffffffffffffffffffffffffffffffffffff1681526020018373ffffffffffffffffffffffffffffffffffffffff1673ffffffffffffffffffffffffffffffffffffffff168152602001828152602001935050505060405180910390a160019050919050565b60008060009054906101000a900473ffffffffffffffffffffffffffffffffffffffff1673ffffffffffffffffffffffffffffffffffffffff163190509056fea165627a7a72305820ef84271d57ae3280660c603a0c6b0752dd5eaa39dfc5fbe60a76376bec90eb1c0029",
  "source": "pragma solidity >=0.4.21 <0.6.0;\n\ncontract Payment {\n  address payable transferFrom;\n  address payable transferTo;\n  uint paymentAmount;\n \n  constructor() public {\n    transferFrom = msg.sender;\n  }\n \n  event TransferFund(address payable _transferTo, address payable _transferFrom, uint amount);\n \n  function transferFund(address payable _transferTo) public payable returns (bool){\n      transferTo = _transferTo;\n      transferTo.transfer(msg.value);\n  \n      emit TransferFund(transferTo, transferFrom, msg.value);\n \n      return true;\n  }\n \n  function getBalanceOfCurrentAccount() public payable returns (uint) {\n    return transferFrom.balance;\n  }\n \n}\n",
  "sourcePath": "D:/Project/DCS/DCS Core/POC/Sabre-Hackathone/Supporting Doc/sabre-dapp-client/contracts/Payment.sol",
  "compiler": {
    "name": "solc",
    "version": "0.5.8+commit.23d335f2.Emscripten.clang"
  },
  "schemaVersion": "3.0.16",
  "updatedAt": "2019-10-28T17:17:17.588Z",
  "devdoc": {
    "methods": {}
  },
  "userdoc": {
    "methods": {}
  }
}